{
  "contractName": "DappToken",
  "abi": [
    {
      "constant": true,
      "inputs": [],
      "name": "name",
      "outputs": [
        {
          "name": "",
          "type": "string"
        }
      ],
      "payable": false,
      "stateMutability": "view",
      "type": "function"
    },
    {
      "constant": true,
      "inputs": [],
      "name": "totalSupply",
      "outputs": [
        {
          "name": "",
          "type": "uint256"
        }
      ],
      "payable": false,
      "stateMutability": "view",
      "type": "function"
    },
    {
      "constant": true,
      "inputs": [],
      "name": "standard",
      "outputs": [
        {
          "name": "",
          "type": "string"
        }
      ],
      "payable": false,
      "stateMutability": "view",
      "type": "function"
    },
    {
      "constant": true,
      "inputs": [
        {
          "name": "",
          "type": "address"
        }
      ],
      "name": "balanceOf",
      "outputs": [
        {
          "name": "",
          "type": "uint256"
        }
      ],
      "payable": false,
      "stateMutability": "view",
      "type": "function"
    },
    {
      "constant": true,
      "inputs": [],
      "name": "symbol",
      "outputs": [
        {
          "name": "",
          "type": "string"
        }
      ],
      "payable": false,
      "stateMutability": "view",
      "type": "function"
    },
    {
      "constant": true,
      "inputs": [
        {
          "name": "",
          "type": "address"
        },
        {
          "name": "",
          "type": "address"
        }
      ],
      "name": "allowance",
      "outputs": [
        {
          "name": "",
          "type": "uint256"
        }
      ],
      "payable": false,
      "stateMutability": "view",
      "type": "function"
    },
    {
      "inputs": [
        {
          "name": "_initialSupply",
          "type": "uint256"
        }
      ],
      "payable": false,
      "stateMutability": "nonpayable",
      "type": "constructor"
    },
    {
      "anonymous": false,
      "inputs": [
        {
          "indexed": true,
          "name": "_from",
          "type": "address"
        },
        {
          "indexed": true,
          "name": "_to",
          "type": "address"
        },
        {
          "indexed": false,
          "name": "_value",
          "type": "uint256"
        }
      ],
      "name": "Transfer",
      "type": "event"
    },
    {
      "anonymous": false,
      "inputs": [
        {
          "indexed": true,
          "name": "_from",
          "type": "address"
        },
        {
          "indexed": true,
          "name": "_spender",
          "type": "address"
        },
        {
          "indexed": false,
          "name": "_value",
          "type": "uint256"
        }
      ],
      "name": "Approve",
      "type": "event"
    },
    {
      "constant": false,
      "inputs": [
        {
          "name": "_to",
          "type": "address"
        },
        {
          "name": "_value",
          "type": "uint256"
        }
      ],
      "name": "transfer",
      "outputs": [
        {
          "name": "success",
          "type": "bool"
        }
      ],
      "payable": false,
      "stateMutability": "nonpayable",
      "type": "function"
    },
    {
      "constant": false,
      "inputs": [
        {
          "name": "_spender",
          "type": "address"
        },
        {
          "name": "_value",
          "type": "uint256"
        }
      ],
      "name": "approve",
      "outputs": [
        {
          "name": "success",
          "type": "bool"
        }
      ],
      "payable": false,
      "stateMutability": "nonpayable",
      "type": "function"
    },
    {
      "constant": false,
      "inputs": [
        {
          "name": "_from",
          "type": "address"
        },
        {
          "name": "_to",
          "type": "address"
        },
        {
          "name": "_value",
          "type": "uint256"
        }
      ],
      "name": "transferForm",
      "outputs": [
        {
          "name": "success",
          "type": "bool"
        }
      ],
      "payable": false,
      "stateMutability": "nonpayable",
      "type": "function"
    }
  ],
  "bytecode": "0x60806040526040805190810160405280600a81526020017f4461707020546f6b656e000000000000000000000000000000000000000000008152506002908051906020019061004f929190610168565b506040805190810160405280600481526020017f44617070000000000000000000000000000000000000000000000000000000008152506003908051906020019061009b929190610168565b506040805190810160405280600f81526020017f4461707020746f6b656e2076312e300000000000000000000000000000000000815250600490805190602001906100e7929190610168565b503480156100f457600080fd5b50604051602080610db58339810180604052810190808051906020019092919050505080600160003373ffffffffffffffffffffffffffffffffffffffff1673ffffffffffffffffffffffffffffffffffffffff16815260200190815260200160002081905550806000819055505061020d565b828054600181600116156101000203166002900490600052602060002090601f016020900481019282601f106101a957805160ff19168380011785556101d7565b828001600101855582156101d7579182015b828111156101d65782518255916020019190600101906101bb565b5b5090506101e491906101e8565b5090565b61020a91905b808211156102065760008160009055506001016101ee565b5090565b90565b610b998061021c6000396000f300608060405260043610610099576000357c0100000000000000000000000000000000000000000000000000000000900463ffffffff16806306fdde031461009e578063095ea7b31461012e57806318160ddd146101935780633112ae5b146101be5780635a3b7e421461024357806370a08231146102d357806395d89b411461032a578063a9059cbb146103ba578063dd62ed3e1461041f575b600080fd5b3480156100aa57600080fd5b506100b3610496565b6040518080602001828103825283818151815260200191508051906020019080838360005b838110156100f35780820151818401526020810190506100d8565b50505050905090810190601f1680156101205780820380516001836020036101000a031916815260200191505b509250505060405180910390f35b34801561013a57600080fd5b50610179600480360381019080803573ffffffffffffffffffffffffffffffffffffffff16906020019092919080359060200190929190505050610534565b604051808215151515815260200191505060405180910390f35b34801561019f57600080fd5b506101a8610626565b6040518082815260200191505060405180910390f35b3480156101ca57600080fd5b50610229600480360381019080803573ffffffffffffffffffffffffffffffffffffffff169060200190929190803573ffffffffffffffffffffffffffffffffffffffff1690602001909291908035906020019092919050505061062c565b604051808215151515815260200191505060405180910390f35b34801561024f57600080fd5b5061025861089b565b6040518080602001828103825283818151815260200191508051906020019080838360005b8381101561029857808201518184015260208101905061027d565b50505050905090810190601f1680156102c55780820380516001836020036101000a031916815260200191505b509250505060405180910390f35b3480156102df57600080fd5b50610314600480360381019080803573ffffffffffffffffffffffffffffffffffffffff169060200190929190505050610939565b6040518082815260200191505060405180910390f35b34801561033657600080fd5b5061033f610951565b6040518080602001828103825283818151815260200191508051906020019080838360005b8381101561037f578082015181840152602081019050610364565b50505050905090810190601f1680156103ac5780820380516001836020036101000a031916815260200191505b509250505060405180910390f35b3480156103c657600080fd5b50610405600480360381019080803573ffffffffffffffffffffffffffffffffffffffff169060200190929190803590602001909291905050506109ef565b604051808215151515815260200191505060405180910390f35b34801561042b57600080fd5b50610480600480360381019080803573ffffffffffffffffffffffffffffffffffffffff169060200190929190803573ffffffffffffffffffffffffffffffffffffffff169060200190929190505050610b48565b6040518082815260200191505060405180910390f35b60028054600181600116156101000203166002900480601f01602080910402602001604051908101604052809291908181526020018280546001816001161561010002031660029004801561052c5780601f106105015761010080835404028352916020019161052c565b820191906000526020600020905b81548152906001019060200180831161050f57829003601f168201915b505050505081565b600081600560003373ffffffffffffffffffffffffffffffffffffffff1673ffffffffffffffffffffffffffffffffffffffff16815260200190815260200160002060008573ffffffffffffffffffffffffffffffffffffffff1673ffffffffffffffffffffffffffffffffffffffff168152602001908152602001600020819055508273ffffffffffffffffffffffffffffffffffffffff163373ffffffffffffffffffffffffffffffffffffffff167f6e11fb1b7f119e3f2fa29896ef5fdf8b8a2d0d4df6fe90ba8668e7d8b2ffa25e846040518082815260200191505060405180910390a36001905092915050565b60005481565b6000600160008573ffffffffffffffffffffffffffffffffffffffff1673ffffffffffffffffffffffffffffffffffffffff16815260200190815260200160002054821115151561067c57600080fd5b600560008573ffffffffffffffffffffffffffffffffffffffff1673ffffffffffffffffffffffffffffffffffffffff16815260200190815260200160002060003373ffffffffffffffffffffffffffffffffffffffff1673ffffffffffffffffffffffffffffffffffffffff16815260200190815260200160002054821115151561070757600080fd5b81600160008573ffffffffffffffffffffffffffffffffffffffff1673ffffffffffffffffffffffffffffffffffffffff1681526020019081526020016000206000828254019250508190555081600160008673ffffffffffffffffffffffffffffffffffffffff1673ffffffffffffffffffffffffffffffffffffffff1681526020019081526020016000206000828254039250508190555081600560008673ffffffffffffffffffffffffffffffffffffffff1673ffffffffffffffffffffffffffffffffffffffff16815260200190815260200160002060003373ffffffffffffffffffffffffffffffffffffffff1673ffffffffffffffffffffffffffffffffffffffff168152602001908152602001600020600082825403925050819055508273ffffffffffffffffffffffffffffffffffffffff168473ffffffffffffffffffffffffffffffffffffffff167fddf252ad1be2c89b69c2b068fc378daa952ba7f163c4a11628f55a4df523b3ef846040518082815260200191505060405180910390a3600190509392505050565b60048054600181600116156101000203166002900480601f0160208091040260200160405190810160405280929190818152602001828054600181600116156101000203166002900480156109315780601f1061090657610100808354040283529160200191610931565b820191906000526020600020905b81548152906001019060200180831161091457829003601f168201915b505050505081565b60016020528060005260406000206000915090505481565b60038054600181600116156101000203166002900480601f0160208091040260200160405190810160405280929190818152602001828054600181600116156101000203166002900480156109e75780601f106109bc576101008083540402835291602001916109e7565b820191906000526020600020905b8154815290600101906020018083116109ca57829003601f168201915b505050505081565b600081600160003373ffffffffffffffffffffffffffffffffffffffff1673ffffffffffffffffffffffffffffffffffffffff1681526020019081526020016000205410151515610a3f57600080fd5b81600160003373ffffffffffffffffffffffffffffffffffffffff1673ffffffffffffffffffffffffffffffffffffffff1681526020019081526020016000206000828254039250508190555081600160008573ffffffffffffffffffffffffffffffffffffffff1673ffffffffffffffffffffffffffffffffffffffff168152602001908152602001600020600082825401925050819055508273ffffffffffffffffffffffffffffffffffffffff163373ffffffffffffffffffffffffffffffffffffffff167fddf252ad1be2c89b69c2b068fc378daa952ba7f163c4a11628f55a4df523b3ef846040518082815260200191505060405180910390a36001905092915050565b60056020528160005260406000206020528060005260406000206000915091505054815600a165627a7a72305820ea7f026f7d1957d11bce111423b112ab6de2d7773483c81bc04c29172c0d5f080029",
  "source": "pragma solidity ^0.4.23;\n\ncontract DappToken {\n\n  uint public totalSupply;\n  mapping (address => uint) public balanceOf;\n  string public name=\"Dapp Token\";\n  string public symbol='Dapp';\n  string public  standard=\"Dapp token v1.0\";\n\n  event Transfer(address indexed _from,address indexed _to,uint _value);\n\n  event Approve(address indexed _from,address indexed _spender,uint _value);\n\nmapping (address => mapping (address => uint)) public allowance;\n\n\n\n  function DappToken(uint _initialSupply) public {\n\n  balanceOf[msg.sender]=_initialSupply;\n    totalSupply=_initialSupply;\n\n  }\n\n  function transfer(address _to,uint _value) public returns (bool success){\n\n  require(balanceOf[msg.sender]>=_value);\n  balanceOf[msg.sender]-=_value;\n  balanceOf[_to]+=_value;\n\n  emit Transfer(msg.sender,_to,_value);\n\n  return true;\n\n\n\n  }\n\n   function approve(address _spender,uint _value) public returns(bool success){\n\nallowance[msg.sender][_spender]=_value; \n   emit Approve(msg.sender,_spender,_value);\n   return true; \n\n\n   }\n   function transferForm(address  _from, address _to,uint _value)public returns (bool success){\n\n    require(_value<=balanceOf[_from]);\n    require(_value<=allowance[_from][msg.sender]);\n\n    balanceOf[_to]+=_value;\n    balanceOf[_from]-=_value;\n    allowance[_from][msg.sender]-=_value;\n\n\n    emit Transfer(_from,_to,_value);\n    return true;\n   }\n\n   \n}\n",
  "sourcePath": "/Users/pritishgupta/Downloads/blockchain/token/contracts/DappToken.sol",
  "compiler": {
    "name": "solc",
    "version": "0.4.23+commit.124ca40d.Emscripten.clang"
  },
  "schemaVersion": "2.0.0",
  "updatedAt": "2019-04-01T15:49:13.257Z"
}